{
  "contractName": "Voting",
  "abi": [
    {
      "inputs": [
        {
          "internalType": "string",
          "name": "_candidate",
          "type": "string"
        }
      ],
      "stateMutability": "nonpayable",
      "type": "constructor"
    },
    {
      "anonymous": false,
      "inputs": [
        {
          "indexed": false,
          "internalType": "address",
          "name": "voter",
          "type": "address"
        },
        {
          "indexed": false,
          "internalType": "uint256",
          "name": "votes",
          "type": "uint256"
        }
      ],
      "name": "Voted",
      "type": "event"
    },
    {
      "inputs": [],
      "name": "candidate",
      "outputs": [
        {
          "internalType": "string",
          "name": "",
          "type": "string"
        }
      ],
      "stateMutability": "view",
      "type": "function",
      "constant": true
    },
    {
      "inputs": [],
      "name": "voteCount",
      "outputs": [
        {
          "internalType": "uint256",
          "name": "",
          "type": "uint256"
        }
      ],
      "stateMutability": "view",
      "type": "function",
      "constant": true
    },
    {
      "inputs": [],
      "name": "vote",
      "outputs": [],
      "stateMutability": "nonpayable",
      "type": "function"
    }
  ],
  "bytecode": "0x608060405234801561001057600080fd5b506040516106c13803806106c183398181016040528101906100329190610162565b8060009080519060200190610048929190610057565b506000600181905550506102c7565b82805461006390610237565b90600052602060002090601f01602090048101928261008557600085556100cc565b82601f1061009e57805160ff19168380011785556100cc565b828001600101855582156100cc579182015b828111156100cb5782518255916020019190600101906100b0565b5b5090506100d991906100dd565b5090565b5b808211156100f65760008160009055506001016100de565b5090565b600061010d610108846101d4565b6101a3565b90508281526020810184848401111561012557600080fd5b610130848285610204565b509392505050565b600082601f83011261014957600080fd5b81516101598482602086016100fa565b91505092915050565b60006020828403121561017457600080fd5b600082015167ffffffffffffffff81111561018e57600080fd5b61019a84828501610138565b91505092915050565b6000604051905081810181811067ffffffffffffffff821117156101ca576101c9610298565b5b8060405250919050565b600067ffffffffffffffff8211156101ef576101ee610298565b5b601f19601f8301169050602081019050919050565b60005b83811015610222578082015181840152602081019050610207565b83811115610231576000848401525b50505050565b6000600282049050600182168061024f57607f821691505b6020821081141561026357610262610269565b5b50919050565b7f4e487b7100000000000000000000000000000000000000000000000000000000600052602260045260246000fd5b7f4e487b7100000000000000000000000000000000000000000000000000000000600052604160045260246000fd5b6103eb806102d66000396000f3fe608060405234801561001057600080fd5b50600436106100415760003560e01c8063632a9a52146100465780636c8381f814610050578063c63840711461006e575b600080fd5b61004e61008c565b005b6100586100e2565b60405161006591906101f6565b60405180910390f35b610076610170565b6040516100839190610218565b60405180910390f35b600180600082825461009e919061024f565b925050819055507f4d99b957a2bc29a30ebd96a7be8e68fe50a3c701db28a91436490b7d53870ca4336001546040516100d89291906101cd565b60405180910390a1565b600080546100ef90610314565b80601f016020809104026020016040519081016040528092919081815260200182805461011b90610314565b80156101685780601f1061013d57610100808354040283529160200191610168565b820191906000526020600020905b81548152906001019060200180831161014b57829003601f168201915b505050505081565b60015481565b61017f816102a5565b82525050565b600061019082610233565b61019a818561023e565b93506101aa8185602086016102e1565b6101b3816103a4565b840191505092915050565b6101c7816102d7565b82525050565b60006040820190506101e26000830185610176565b6101ef60208301846101be565b9392505050565b600060208201905081810360008301526102108184610185565b905092915050565b600060208201905061022d60008301846101be565b92915050565b600081519050919050565b600082825260208201905092915050565b600061025a826102d7565b9150610265836102d7565b9250827fffffffffffffffffffffffffffffffffffffffffffffffffffffffffffffffff0382111561029a57610299610346565b5b828201905092915050565b60006102b0826102b7565b9050919050565b600073ffffffffffffffffffffffffffffffffffffffff82169050919050565b6000819050919050565b60005b838110156102ff5780820151818401526020810190506102e4565b8381111561030e576000848401525b50505050565b6000600282049050600182168061032c57607f821691505b602082108114156103405761033f610375565b5b50919050565b7f4e487b7100000000000000000000000000000000000000000000000000000000600052601160045260246000fd5b7f4e487b7100000000000000000000000000000000000000000000000000000000600052602260045260246000fd5b6000601f19601f830116905091905056fea2646970667358221220b175b1771e649b7ebf7a53e5b18c6951f4720063ed92fb154788058a5d886ca664736f6c63430008000033",
  "immutableReferences": {},
  "source": "// SPDX-License-Identifier: MIT\npragma solidity ^0.8.0;\n\ncontract Voting {\n    string public candidate;\n    uint public voteCount;\n\n    event Voted(address voter, uint votes);\n\n    constructor(string memory _candidate) {\n        candidate = _candidate;\n        voteCount = 0;\n    }\n\n    function vote() public {\n        voteCount += 1;\n        emit Voted(msg.sender, voteCount);\n    }\n}\n\n",
  "sourcePath": "/Users/samantha/voting-dapp/contracts/Voting.sol",
  "compiler": {
    "name": "solc",
    "version": "0.8.0+commit.c7dfd78e.Emscripten.clang"
  },
  "schemaVersion": "3.4.16",
  "updatedAt": "2024-06-20T20:18:40.370Z",
  "networkType": "ethereum",
  "devdoc": {
    "kind": "dev",
    "methods": {},
    "version": 1
  },
  "userdoc": {
    "kind": "user",
    "methods": {},
    "version": 1
  }
}